{
	"data": {
		"bytecode": {
			"linkReferences": {},
			"object": "6080604052607b5f55348015610013575f80fd5b506108f7806100215f395ff3fe608060405234801561000f575f80fd5b5060043610610055575f3560e01c80632e64cec114610059578063795fff1d146100775780638a81bba0146100935780639e7a13ad146100c3578063fec4207a146100f4575b5f80fd5b610061610110565b60405161006e91906102a4565b60405180910390f35b610091600480360381019061008c9190610434565b610118565b005b6100ad60048036038101906100a8919061048e565b6101a1565b6040516100ba91906102a4565b60405180910390f35b6100dd60048036038101906100d891906104d5565b6101ce565b6040516100eb92919061057a565b60405180910390f35b61010e600480360381019061010991906104d5565b610283565b005b5f8054905090565b5f6040518060400160405280838152602001848152509050600281908060018154018082558091505060019003905f5260205f2090600202015f909190919091505f820151815f0155602082015181600101908161017691906107a2565b5050508160018460405161018a91906108ab565b908152602001604051809103902081905550505050565b6001818051602081018201805184825260208301602085012081835280955050505050505f915090505481565b600281815481106101dd575f80fd5b905f5260205f2090600202015f91509050805f015490806001018054610202906105d5565b80601f016020809104026020016040519081016040528092919081815260200182805461022e906105d5565b80156102795780601f1061025057610100808354040283529160200191610279565b820191905f5260205f20905b81548152906001019060200180831161025c57829003601f168201915b5050505050905082565b805f8190555050565b5f819050919050565b61029e8161028c565b82525050565b5f6020820190506102b75f830184610295565b92915050565b5f604051905090565b5f80fd5b5f80fd5b5f80fd5b5f80fd5b5f601f19601f8301169050919050565b7f4e487b71000000000000000000000000000000000000000000000000000000005f52604160045260245ffd5b61031c826102d6565b810181811067ffffffffffffffff8211171561033b5761033a6102e6565b5b80604052505050565b5f61034d6102bd565b90506103598282610313565b919050565b5f67ffffffffffffffff821115610378576103776102e6565b5b610381826102d6565b9050602081019050919050565b828183375f83830152505050565b5f6103ae6103a98461035e565b610344565b9050828152602081018484840111156103ca576103c96102d2565b5b6103d584828561038e565b509392505050565b5f82601f8301126103f1576103f06102ce565b5b813561040184826020860161039c565b91505092915050565b6104138161028c565b811461041d575f80fd5b50565b5f8135905061042e8161040a565b92915050565b5f806040838503121561044a576104496102c6565b5b5f83013567ffffffffffffffff811115610467576104666102ca565b5b610473858286016103dd565b925050602061048485828601610420565b9150509250929050565b5f602082840312156104a3576104a26102c6565b5b5f82013567ffffffffffffffff8111156104c0576104bf6102ca565b5b6104cc848285016103dd565b91505092915050565b5f602082840312156104ea576104e96102c6565b5b5f6104f784828501610420565b91505092915050565b5f81519050919050565b5f82825260208201905092915050565b5f5b8381101561053757808201518184015260208101905061051c565b5f8484015250505050565b5f61054c82610500565b610556818561050a565b935061056681856020860161051a565b61056f816102d6565b840191505092915050565b5f60408201905061058d5f830185610295565b818103602083015261059f8184610542565b90509392505050565b7f4e487b71000000000000000000000000000000000000000000000000000000005f52602260045260245ffd5b5f60028204905060018216806105ec57607f821691505b6020821081036105ff576105fe6105a8565b5b50919050565b5f819050815f5260205f209050919050565b5f6020601f8301049050919050565b5f82821b905092915050565b5f600883026106617fffffffffffffffffffffffffffffffffffffffffffffffffffffffffffffffff82610626565b61066b8683610626565b95508019841693508086168417925050509392505050565b5f819050919050565b5f6106a66106a161069c8461028c565b610683565b61028c565b9050919050565b5f819050919050565b6106bf8361068c565b6106d36106cb826106ad565b848454610632565b825550505050565b5f90565b6106e76106db565b6106f28184846106b6565b505050565b5b818110156107155761070a5f826106df565b6001810190506106f8565b5050565b601f82111561075a5761072b81610605565b61073484610617565b81016020851015610743578190505b61075761074f85610617565b8301826106f7565b50505b505050565b5f82821c905092915050565b5f61077a5f198460080261075f565b1980831691505092915050565b5f610792838361076b565b9150826002028217905092915050565b6107ab82610500565b67ffffffffffffffff8111156107c4576107c36102e6565b5b6107ce82546105d5565b6107d9828285610719565b5f60209050601f83116001811461080a575f84156107f8578287015190505b6108028582610787565b865550610869565b601f19841661081886610605565b5f5b8281101561083f5784890151825560018201915060208501945060208101905061081a565b8683101561085c5784890151610858601f89168261076b565b8355505b6001600288020188555050505b505050505050565b5f81905092915050565b5f61088582610500565b61088f8185610871565b935061089f81856020860161051a565b80840191505092915050565b5f6108b6828461087b565b91508190509291505056fea26469706673582212206e3cab82dc98a0d73fd68f1ac72dd60652d22e2e6a3e502392a199132e4bc5dc64736f6c63430008180033",
			"opcodes": "PUSH1 0x80 PUSH1 0x40 MSTORE PUSH1 0x7B PUSH0 SSTORE CALLVALUE DUP1 ISZERO PUSH2 0x13 JUMPI PUSH0 DUP1 REVERT JUMPDEST POP PUSH2 0x8F7 DUP1 PUSH2 0x21 PUSH0 CODECOPY PUSH0 RETURN INVALID PUSH1 0x80 PUSH1 0x40 MSTORE CALLVALUE DUP1 ISZERO PUSH2 0xF JUMPI PUSH0 DUP1 REVERT JUMPDEST POP PUSH1 0x4 CALLDATASIZE LT PUSH2 0x55 JUMPI PUSH0 CALLDATALOAD PUSH1 0xE0 SHR DUP1 PUSH4 0x2E64CEC1 EQ PUSH2 0x59 JUMPI DUP1 PUSH4 0x795FFF1D EQ PUSH2 0x77 JUMPI DUP1 PUSH4 0x8A81BBA0 EQ PUSH2 0x93 JUMPI DUP1 PUSH4 0x9E7A13AD EQ PUSH2 0xC3 JUMPI DUP1 PUSH4 0xFEC4207A EQ PUSH2 0xF4 JUMPI JUMPDEST PUSH0 DUP1 REVERT JUMPDEST PUSH2 0x61 PUSH2 0x110 JUMP JUMPDEST PUSH1 0x40 MLOAD PUSH2 0x6E SWAP2 SWAP1 PUSH2 0x2A4 JUMP JUMPDEST PUSH1 0x40 MLOAD DUP1 SWAP2 SUB SWAP1 RETURN JUMPDEST PUSH2 0x91 PUSH1 0x4 DUP1 CALLDATASIZE SUB DUP2 ADD SWAP1 PUSH2 0x8C SWAP2 SWAP1 PUSH2 0x434 JUMP JUMPDEST PUSH2 0x118 JUMP JUMPDEST STOP JUMPDEST PUSH2 0xAD PUSH1 0x4 DUP1 CALLDATASIZE SUB DUP2 ADD SWAP1 PUSH2 0xA8 SWAP2 SWAP1 PUSH2 0x48E JUMP JUMPDEST PUSH2 0x1A1 JUMP JUMPDEST PUSH1 0x40 MLOAD PUSH2 0xBA SWAP2 SWAP1 PUSH2 0x2A4 JUMP JUMPDEST PUSH1 0x40 MLOAD DUP1 SWAP2 SUB SWAP1 RETURN JUMPDEST PUSH2 0xDD PUSH1 0x4 DUP1 CALLDATASIZE SUB DUP2 ADD SWAP1 PUSH2 0xD8 SWAP2 SWAP1 PUSH2 0x4D5 JUMP JUMPDEST PUSH2 0x1CE JUMP JUMPDEST PUSH1 0x40 MLOAD PUSH2 0xEB SWAP3 SWAP2 SWAP1 PUSH2 0x57A JUMP JUMPDEST PUSH1 0x40 MLOAD DUP1 SWAP2 SUB SWAP1 RETURN JUMPDEST PUSH2 0x10E PUSH1 0x4 DUP1 CALLDATASIZE SUB DUP2 ADD SWAP1 PUSH2 0x109 SWAP2 SWAP1 PUSH2 0x4D5 JUMP JUMPDEST PUSH2 0x283 JUMP JUMPDEST STOP JUMPDEST PUSH0 DUP1 SLOAD SWAP1 POP SWAP1 JUMP JUMPDEST PUSH0 PUSH1 0x40 MLOAD DUP1 PUSH1 0x40 ADD PUSH1 0x40 MSTORE DUP1 DUP4 DUP2 MSTORE PUSH1 0x20 ADD DUP5 DUP2 MSTORE POP SWAP1 POP PUSH1 0x2 DUP2 SWAP1 DUP1 PUSH1 0x1 DUP2 SLOAD ADD DUP1 DUP3 SSTORE DUP1 SWAP2 POP POP PUSH1 0x1 SWAP1 SUB SWAP1 PUSH0 MSTORE PUSH1 0x20 PUSH0 KECCAK256 SWAP1 PUSH1 0x2 MUL ADD PUSH0 SWAP1 SWAP2 SWAP1 SWAP2 SWAP1 SWAP2 POP PUSH0 DUP3 ADD MLOAD DUP2 PUSH0 ADD SSTORE PUSH1 0x20 DUP3 ADD MLOAD DUP2 PUSH1 0x1 ADD SWAP1 DUP2 PUSH2 0x176 SWAP2 SWAP1 PUSH2 0x7A2 JUMP JUMPDEST POP POP POP DUP2 PUSH1 0x1 DUP5 PUSH1 0x40 MLOAD PUSH2 0x18A SWAP2 SWAP1 PUSH2 0x8AB JUMP JUMPDEST SWAP1 DUP2 MSTORE PUSH1 0x20 ADD PUSH1 0x40 MLOAD DUP1 SWAP2 SUB SWAP1 KECCAK256 DUP2 SWAP1 SSTORE POP POP POP POP JUMP JUMPDEST PUSH1 0x1 DUP2 DUP1 MLOAD PUSH1 0x20 DUP2 ADD DUP3 ADD DUP1 MLOAD DUP5 DUP3 MSTORE PUSH1 0x20 DUP4 ADD PUSH1 0x20 DUP6 ADD KECCAK256 DUP2 DUP4 MSTORE DUP1 SWAP6 POP POP POP POP POP POP PUSH0 SWAP2 POP SWAP1 POP SLOAD DUP2 JUMP JUMPDEST PUSH1 0x2 DUP2 DUP2 SLOAD DUP2 LT PUSH2 0x1DD JUMPI PUSH0 DUP1 REVERT JUMPDEST SWAP1 PUSH0 MSTORE PUSH1 0x20 PUSH0 KECCAK256 SWAP1 PUSH1 0x2 MUL ADD PUSH0 SWAP2 POP SWAP1 POP DUP1 PUSH0 ADD SLOAD SWAP1 DUP1 PUSH1 0x1 ADD DUP1 SLOAD PUSH2 0x202 SWAP1 PUSH2 0x5D5 JUMP JUMPDEST DUP1 PUSH1 0x1F ADD PUSH1 0x20 DUP1 SWAP2 DIV MUL PUSH1 0x20 ADD PUSH1 0x40 MLOAD SWAP1 DUP2 ADD PUSH1 0x40 MSTORE DUP1 SWAP3 SWAP2 SWAP1 DUP2 DUP2 MSTORE PUSH1 0x20 ADD DUP3 DUP1 SLOAD PUSH2 0x22E SWAP1 PUSH2 0x5D5 JUMP JUMPDEST DUP1 ISZERO PUSH2 0x279 JUMPI DUP1 PUSH1 0x1F LT PUSH2 0x250 JUMPI PUSH2 0x100 DUP1 DUP4 SLOAD DIV MUL DUP4 MSTORE SWAP2 PUSH1 0x20 ADD SWAP2 PUSH2 0x279 JUMP JUMPDEST DUP3 ADD SWAP2 SWAP1 PUSH0 MSTORE PUSH1 0x20 PUSH0 KECCAK256 SWAP1 JUMPDEST DUP2 SLOAD DUP2 MSTORE SWAP1 PUSH1 0x1 ADD SWAP1 PUSH1 0x20 ADD DUP1 DUP4 GT PUSH2 0x25C JUMPI DUP3 SWAP1 SUB PUSH1 0x1F AND DUP3 ADD SWAP2 JUMPDEST POP POP POP POP POP SWAP1 POP DUP3 JUMP JUMPDEST DUP1 PUSH0 DUP2 SWAP1 SSTORE POP POP JUMP JUMPDEST PUSH0 DUP2 SWAP1 POP SWAP2 SWAP1 POP JUMP JUMPDEST PUSH2 0x29E DUP2 PUSH2 0x28C JUMP JUMPDEST DUP3 MSTORE POP POP JUMP JUMPDEST PUSH0 PUSH1 0x20 DUP3 ADD SWAP1 POP PUSH2 0x2B7 PUSH0 DUP4 ADD DUP5 PUSH2 0x295 JUMP JUMPDEST SWAP3 SWAP2 POP POP JUMP JUMPDEST PUSH0 PUSH1 0x40 MLOAD SWAP1 POP SWAP1 JUMP JUMPDEST PUSH0 DUP1 REVERT JUMPDEST PUSH0 DUP1 REVERT JUMPDEST PUSH0 DUP1 REVERT JUMPDEST PUSH0 DUP1 REVERT JUMPDEST PUSH0 PUSH1 0x1F NOT PUSH1 0x1F DUP4 ADD AND SWAP1 POP SWAP2 SWAP1 POP JUMP JUMPDEST PUSH32 0x4E487B7100000000000000000000000000000000000000000000000000000000 PUSH0 MSTORE PUSH1 0x41 PUSH1 0x4 MSTORE PUSH1 0x24 PUSH0 REVERT JUMPDEST PUSH2 0x31C DUP3 PUSH2 0x2D6 JUMP JUMPDEST DUP2 ADD DUP2 DUP2 LT PUSH8 0xFFFFFFFFFFFFFFFF DUP3 GT OR ISZERO PUSH2 0x33B JUMPI PUSH2 0x33A PUSH2 0x2E6 JUMP JUMPDEST JUMPDEST DUP1 PUSH1 0x40 MSTORE POP POP POP JUMP JUMPDEST PUSH0 PUSH2 0x34D PUSH2 0x2BD JUMP JUMPDEST SWAP1 POP PUSH2 0x359 DUP3 DUP3 PUSH2 0x313 JUMP JUMPDEST SWAP2 SWAP1 POP JUMP JUMPDEST PUSH0 PUSH8 0xFFFFFFFFFFFFFFFF DUP3 GT ISZERO PUSH2 0x378 JUMPI PUSH2 0x377 PUSH2 0x2E6 JUMP JUMPDEST JUMPDEST PUSH2 0x381 DUP3 PUSH2 0x2D6 JUMP JUMPDEST SWAP1 POP PUSH1 0x20 DUP2 ADD SWAP1 POP SWAP2 SWAP1 POP JUMP JUMPDEST DUP3 DUP2 DUP4 CALLDATACOPY PUSH0 DUP4 DUP4 ADD MSTORE POP POP POP JUMP JUMPDEST PUSH0 PUSH2 0x3AE PUSH2 0x3A9 DUP5 PUSH2 0x35E JUMP JUMPDEST PUSH2 0x344 JUMP JUMPDEST SWAP1 POP DUP3 DUP2 MSTORE PUSH1 0x20 DUP2 ADD DUP5 DUP5 DUP5 ADD GT ISZERO PUSH2 0x3CA JUMPI PUSH2 0x3C9 PUSH2 0x2D2 JUMP JUMPDEST JUMPDEST PUSH2 0x3D5 DUP5 DUP3 DUP6 PUSH2 0x38E JUMP JUMPDEST POP SWAP4 SWAP3 POP POP POP JUMP JUMPDEST PUSH0 DUP3 PUSH1 0x1F DUP4 ADD SLT PUSH2 0x3F1 JUMPI PUSH2 0x3F0 PUSH2 0x2CE JUMP JUMPDEST JUMPDEST DUP2 CALLDATALOAD PUSH2 0x401 DUP5 DUP3 PUSH1 0x20 DUP7 ADD PUSH2 0x39C JUMP JUMPDEST SWAP2 POP POP SWAP3 SWAP2 POP POP JUMP JUMPDEST PUSH2 0x413 DUP2 PUSH2 0x28C JUMP JUMPDEST DUP2 EQ PUSH2 0x41D JUMPI PUSH0 DUP1 REVERT JUMPDEST POP JUMP JUMPDEST PUSH0 DUP2 CALLDATALOAD SWAP1 POP PUSH2 0x42E DUP2 PUSH2 0x40A JUMP JUMPDEST SWAP3 SWAP2 POP POP JUMP JUMPDEST PUSH0 DUP1 PUSH1 0x40 DUP4 DUP6 SUB SLT ISZERO PUSH2 0x44A JUMPI PUSH2 0x449 PUSH2 0x2C6 JUMP JUMPDEST JUMPDEST PUSH0 DUP4 ADD CALLDATALOAD PUSH8 0xFFFFFFFFFFFFFFFF DUP2 GT ISZERO PUSH2 0x467 JUMPI PUSH2 0x466 PUSH2 0x2CA JUMP JUMPDEST JUMPDEST PUSH2 0x473 DUP6 DUP3 DUP7 ADD PUSH2 0x3DD JUMP JUMPDEST SWAP3 POP POP PUSH1 0x20 PUSH2 0x484 DUP6 DUP3 DUP7 ADD PUSH2 0x420 JUMP JUMPDEST SWAP2 POP POP SWAP3 POP SWAP3 SWAP1 POP JUMP JUMPDEST PUSH0 PUSH1 0x20 DUP3 DUP5 SUB SLT ISZERO PUSH2 0x4A3 JUMPI PUSH2 0x4A2 PUSH2 0x2C6 JUMP JUMPDEST JUMPDEST PUSH0 DUP3 ADD CALLDATALOAD PUSH8 0xFFFFFFFFFFFFFFFF DUP2 GT ISZERO PUSH2 0x4C0 JUMPI PUSH2 0x4BF PUSH2 0x2CA JUMP JUMPDEST JUMPDEST PUSH2 0x4CC DUP5 DUP3 DUP6 ADD PUSH2 0x3DD JUMP JUMPDEST SWAP2 POP POP SWAP3 SWAP2 POP POP JUMP JUMPDEST PUSH0 PUSH1 0x20 DUP3 DUP5 SUB SLT ISZERO PUSH2 0x4EA JUMPI PUSH2 0x4E9 PUSH2 0x2C6 JUMP JUMPDEST JUMPDEST PUSH0 PUSH2 0x4F7 DUP5 DUP3 DUP6 ADD PUSH2 0x420 JUMP JUMPDEST SWAP2 POP POP SWAP3 SWAP2 POP POP JUMP JUMPDEST PUSH0 DUP2 MLOAD SWAP1 POP SWAP2 SWAP1 POP JUMP JUMPDEST PUSH0 DUP3 DUP3 MSTORE PUSH1 0x20 DUP3 ADD SWAP1 POP SWAP3 SWAP2 POP POP JUMP JUMPDEST PUSH0 JUMPDEST DUP4 DUP2 LT ISZERO PUSH2 0x537 JUMPI DUP1 DUP3 ADD MLOAD DUP2 DUP5 ADD MSTORE PUSH1 0x20 DUP2 ADD SWAP1 POP PUSH2 0x51C JUMP JUMPDEST PUSH0 DUP5 DUP5 ADD MSTORE POP POP POP POP JUMP JUMPDEST PUSH0 PUSH2 0x54C DUP3 PUSH2 0x500 JUMP JUMPDEST PUSH2 0x556 DUP2 DUP6 PUSH2 0x50A JUMP JUMPDEST SWAP4 POP PUSH2 0x566 DUP2 DUP6 PUSH1 0x20 DUP7 ADD PUSH2 0x51A JUMP JUMPDEST PUSH2 0x56F DUP2 PUSH2 0x2D6 JUMP JUMPDEST DUP5 ADD SWAP2 POP POP SWAP3 SWAP2 POP POP JUMP JUMPDEST PUSH0 PUSH1 0x40 DUP3 ADD SWAP1 POP PUSH2 0x58D PUSH0 DUP4 ADD DUP6 PUSH2 0x295 JUMP JUMPDEST DUP2 DUP2 SUB PUSH1 0x20 DUP4 ADD MSTORE PUSH2 0x59F DUP2 DUP5 PUSH2 0x542 JUMP JUMPDEST SWAP1 POP SWAP4 SWAP3 POP POP POP JUMP JUMPDEST PUSH32 0x4E487B7100000000000000000000000000000000000000000000000000000000 PUSH0 MSTORE PUSH1 0x22 PUSH1 0x4 MSTORE PUSH1 0x24 PUSH0 REVERT JUMPDEST PUSH0 PUSH1 0x2 DUP3 DIV SWAP1 POP PUSH1 0x1 DUP3 AND DUP1 PUSH2 0x5EC JUMPI PUSH1 0x7F DUP3 AND SWAP2 POP JUMPDEST PUSH1 0x20 DUP3 LT DUP2 SUB PUSH2 0x5FF JUMPI PUSH2 0x5FE PUSH2 0x5A8 JUMP JUMPDEST JUMPDEST POP SWAP2 SWAP1 POP JUMP JUMPDEST PUSH0 DUP2 SWAP1 POP DUP2 PUSH0 MSTORE PUSH1 0x20 PUSH0 KECCAK256 SWAP1 POP SWAP2 SWAP1 POP JUMP JUMPDEST PUSH0 PUSH1 0x20 PUSH1 0x1F DUP4 ADD DIV SWAP1 POP SWAP2 SWAP1 POP JUMP JUMPDEST PUSH0 DUP3 DUP3 SHL SWAP1 POP SWAP3 SWAP2 POP POP JUMP JUMPDEST PUSH0 PUSH1 0x8 DUP4 MUL PUSH2 0x661 PUSH32 0xFFFFFFFFFFFFFFFFFFFFFFFFFFFFFFFFFFFFFFFFFFFFFFFFFFFFFFFFFFFFFFFF DUP3 PUSH2 0x626 JUMP JUMPDEST PUSH2 0x66B DUP7 DUP4 PUSH2 0x626 JUMP JUMPDEST SWAP6 POP DUP1 NOT DUP5 AND SWAP4 POP DUP1 DUP7 AND DUP5 OR SWAP3 POP POP POP SWAP4 SWAP3 POP POP POP JUMP JUMPDEST PUSH0 DUP2 SWAP1 POP SWAP2 SWAP1 POP JUMP JUMPDEST PUSH0 PUSH2 0x6A6 PUSH2 0x6A1 PUSH2 0x69C DUP5 PUSH2 0x28C JUMP JUMPDEST PUSH2 0x683 JUMP JUMPDEST PUSH2 0x28C JUMP JUMPDEST SWAP1 POP SWAP2 SWAP1 POP JUMP JUMPDEST PUSH0 DUP2 SWAP1 POP SWAP2 SWAP1 POP JUMP JUMPDEST PUSH2 0x6BF DUP4 PUSH2 0x68C JUMP JUMPDEST PUSH2 0x6D3 PUSH2 0x6CB DUP3 PUSH2 0x6AD JUMP JUMPDEST DUP5 DUP5 SLOAD PUSH2 0x632 JUMP JUMPDEST DUP3 SSTORE POP POP POP POP JUMP JUMPDEST PUSH0 SWAP1 JUMP JUMPDEST PUSH2 0x6E7 PUSH2 0x6DB JUMP JUMPDEST PUSH2 0x6F2 DUP2 DUP5 DUP5 PUSH2 0x6B6 JUMP JUMPDEST POP POP POP JUMP JUMPDEST JUMPDEST DUP2 DUP2 LT ISZERO PUSH2 0x715 JUMPI PUSH2 0x70A PUSH0 DUP3 PUSH2 0x6DF JUMP JUMPDEST PUSH1 0x1 DUP2 ADD SWAP1 POP PUSH2 0x6F8 JUMP JUMPDEST POP POP JUMP JUMPDEST PUSH1 0x1F DUP3 GT ISZERO PUSH2 0x75A JUMPI PUSH2 0x72B DUP2 PUSH2 0x605 JUMP JUMPDEST PUSH2 0x734 DUP5 PUSH2 0x617 JUMP JUMPDEST DUP2 ADD PUSH1 0x20 DUP6 LT ISZERO PUSH2 0x743 JUMPI DUP2 SWAP1 POP JUMPDEST PUSH2 0x757 PUSH2 0x74F DUP6 PUSH2 0x617 JUMP JUMPDEST DUP4 ADD DUP3 PUSH2 0x6F7 JUMP JUMPDEST POP POP JUMPDEST POP POP POP JUMP JUMPDEST PUSH0 DUP3 DUP3 SHR SWAP1 POP SWAP3 SWAP2 POP POP JUMP JUMPDEST PUSH0 PUSH2 0x77A PUSH0 NOT DUP5 PUSH1 0x8 MUL PUSH2 0x75F JUMP JUMPDEST NOT DUP1 DUP4 AND SWAP2 POP POP SWAP3 SWAP2 POP POP JUMP JUMPDEST PUSH0 PUSH2 0x792 DUP4 DUP4 PUSH2 0x76B JUMP JUMPDEST SWAP2 POP DUP3 PUSH1 0x2 MUL DUP3 OR SWAP1 POP SWAP3 SWAP2 POP POP JUMP JUMPDEST PUSH2 0x7AB DUP3 PUSH2 0x500 JUMP JUMPDEST PUSH8 0xFFFFFFFFFFFFFFFF DUP2 GT ISZERO PUSH2 0x7C4 JUMPI PUSH2 0x7C3 PUSH2 0x2E6 JUMP JUMPDEST JUMPDEST PUSH2 0x7CE DUP3 SLOAD PUSH2 0x5D5 JUMP JUMPDEST PUSH2 0x7D9 DUP3 DUP3 DUP6 PUSH2 0x719 JUMP JUMPDEST PUSH0 PUSH1 0x20 SWAP1 POP PUSH1 0x1F DUP4 GT PUSH1 0x1 DUP2 EQ PUSH2 0x80A JUMPI PUSH0 DUP5 ISZERO PUSH2 0x7F8 JUMPI DUP3 DUP8 ADD MLOAD SWAP1 POP JUMPDEST PUSH2 0x802 DUP6 DUP3 PUSH2 0x787 JUMP JUMPDEST DUP7 SSTORE POP PUSH2 0x869 JUMP JUMPDEST PUSH1 0x1F NOT DUP5 AND PUSH2 0x818 DUP7 PUSH2 0x605 JUMP JUMPDEST PUSH0 JUMPDEST DUP3 DUP2 LT ISZERO PUSH2 0x83F JUMPI DUP5 DUP10 ADD MLOAD DUP3 SSTORE PUSH1 0x1 DUP3 ADD SWAP2 POP PUSH1 0x20 DUP6 ADD SWAP5 POP PUSH1 0x20 DUP2 ADD SWAP1 POP PUSH2 0x81A JUMP JUMPDEST DUP7 DUP4 LT ISZERO PUSH2 0x85C JUMPI DUP5 DUP10 ADD MLOAD PUSH2 0x858 PUSH1 0x1F DUP10 AND DUP3 PUSH2 0x76B JUMP JUMPDEST DUP4 SSTORE POP JUMPDEST PUSH1 0x1 PUSH1 0x2 DUP9 MUL ADD DUP9 SSTORE POP POP POP JUMPDEST POP POP POP POP POP POP JUMP JUMPDEST PUSH0 DUP2 SWAP1 POP SWAP3 SWAP2 POP POP JUMP JUMPDEST PUSH0 PUSH2 0x885 DUP3 PUSH2 0x500 JUMP JUMPDEST PUSH2 0x88F DUP2 DUP6 PUSH2 0x871 JUMP JUMPDEST SWAP4 POP PUSH2 0x89F DUP2 DUP6 PUSH1 0x20 DUP7 ADD PUSH2 0x51A JUMP JUMPDEST DUP1 DUP5 ADD SWAP2 POP POP SWAP3 SWAP2 POP POP JUMP JUMPDEST PUSH0 PUSH2 0x8B6 DUP3 DUP5 PUSH2 0x87B JUMP JUMPDEST SWAP2 POP DUP2 SWAP1 POP SWAP3 SWAP2 POP POP JUMP INVALID LOG2 PUSH5 0x6970667358 0x22 SLT KECCAK256 PUSH15 0x3CAB82DC98A0D73FD68F1AC72DD606 MSTORE 0xD2 0x2E 0x2E PUSH11 0x3E502392A199132E4BC5DC PUSH5 0x736F6C6343 STOP ADDMOD XOR STOP CALLER "
		},
		"gasEstimates": {
			"creation": {
				"codeDepositCost": "459000",
				"executionCost": "22596",
				"totalCost": "481596"
			},
			"external": {
				"addPeople(string,uint256)": "infinite",
				"changeFavourite(uint256)": "22580",
				"numberToFavouriteString(string)": "infinite",
				"people(uint256)": "infinite",
				"retrieve()": "2410"
			}
		},
		"methodIdentifiers": {
			"addPeople(string,uint256)": "795fff1d",
			"changeFavourite(uint256)": "fec4207a",
			"numberToFavouriteString(string)": "8a81bba0",
			"people(uint256)": "9e7a13ad",
			"retrieve()": "2e64cec1"
		}
	},
	"abi": [
		{
			"inputs": [
				{
					"internalType": "string",
					"name": "_color",
					"type": "string"
				},
				{
					"internalType": "uint256",
					"name": "_favouriteNumber",
					"type": "uint256"
				}
			],
			"name": "addPeople",
			"outputs": [],
			"stateMutability": "nonpayable",
			"type": "function"
		},
		{
			"inputs": [
				{
					"internalType": "uint256",
					"name": "_newFavourite",
					"type": "uint256"
				}
			],
			"name": "changeFavourite",
			"outputs": [],
			"stateMutability": "nonpayable",
			"type": "function"
		},
		{
			"inputs": [
				{
					"internalType": "string",
					"name": "",
					"type": "string"
				}
			],
			"name": "numberToFavouriteString",
			"outputs": [
				{
					"internalType": "uint256",
					"name": "",
					"type": "uint256"
				}
			],
			"stateMutability": "view",
			"type": "function"
		},
		{
			"inputs": [
				{
					"internalType": "uint256",
					"name": "",
					"type": "uint256"
				}
			],
			"name": "people",
			"outputs": [
				{
					"internalType": "uint256",
					"name": "jerseyNumber",
					"type": "uint256"
				},
				{
					"internalType": "string",
					"name": "color",
					"type": "string"
				}
			],
			"stateMutability": "view",
			"type": "function"
		},
		{
			"inputs": [],
			"name": "retrieve",
			"outputs": [
				{
					"internalType": "uint256",
					"name": "",
					"type": "uint256"
				}
			],
			"stateMutability": "view",
			"type": "function"
		}
	]
}